{
  "contractName": "ECertificateContract",
  "abi": [
    {
      "inputs": [
        {
          "internalType": "string",
          "name": "name",
          "type": "string"
        },
        {
          "internalType": "string",
          "name": "symbol",
          "type": "string"
        }
      ],
      "stateMutability": "nonpayable",
      "type": "constructor"
    },
    {
      "anonymous": false,
      "inputs": [
        {
          "indexed": true,
          "internalType": "address",
          "name": "owner",
          "type": "address"
        },
        {
          "indexed": true,
          "internalType": "address",
          "name": "approved",
          "type": "address"
        },
        {
          "indexed": true,
          "internalType": "uint256",
          "name": "tokenId",
          "type": "uint256"
        }
      ],
      "name": "Approval",
      "type": "event"
    },
    {
      "anonymous": false,
      "inputs": [
        {
          "indexed": true,
          "internalType": "address",
          "name": "owner",
          "type": "address"
        },
        {
          "indexed": true,
          "internalType": "address",
          "name": "operator",
          "type": "address"
        },
        {
          "indexed": false,
          "internalType": "bool",
          "name": "approved",
          "type": "bool"
        }
      ],
      "name": "ApprovalForAll",
      "type": "event"
    },
    {
      "anonymous": false,
      "inputs": [
        {
          "indexed": true,
          "internalType": "address",
          "name": "previousOwner",
          "type": "address"
        },
        {
          "indexed": true,
          "internalType": "address",
          "name": "newOwner",
          "type": "address"
        }
      ],
      "name": "OwnershipTransferred",
      "type": "event"
    },
    {
      "anonymous": false,
      "inputs": [
        {
          "indexed": true,
          "internalType": "address",
          "name": "from",
          "type": "address"
        },
        {
          "indexed": true,
          "internalType": "address",
          "name": "to",
          "type": "address"
        },
        {
          "indexed": true,
          "internalType": "uint256",
          "name": "tokenId",
          "type": "uint256"
        }
      ],
      "name": "Transfer",
      "type": "event"
    },
    {
      "inputs": [
        {
          "internalType": "address",
          "name": "to",
          "type": "address"
        },
        {
          "internalType": "uint256",
          "name": "tokenId",
          "type": "uint256"
        }
      ],
      "name": "approve",
      "outputs": [],
      "stateMutability": "nonpayable",
      "type": "function"
    },
    {
      "inputs": [
        {
          "internalType": "address",
          "name": "owner",
          "type": "address"
        }
      ],
      "name": "balanceOf",
      "outputs": [
        {
          "internalType": "uint256",
          "name": "",
          "type": "uint256"
        }
      ],
      "stateMutability": "view",
      "type": "function"
    },
    {
      "inputs": [
        {
          "internalType": "uint256",
          "name": "tokenId",
          "type": "uint256"
        }
      ],
      "name": "getApproved",
      "outputs": [
        {
          "internalType": "address",
          "name": "",
          "type": "address"
        }
      ],
      "stateMutability": "view",
      "type": "function"
    },
    {
      "inputs": [
        {
          "internalType": "address",
          "name": "owner",
          "type": "address"
        },
        {
          "internalType": "address",
          "name": "operator",
          "type": "address"
        }
      ],
      "name": "isApprovedForAll",
      "outputs": [
        {
          "internalType": "bool",
          "name": "",
          "type": "bool"
        }
      ],
      "stateMutability": "view",
      "type": "function"
    },
    {
      "inputs": [],
      "name": "name",
      "outputs": [
        {
          "internalType": "string",
          "name": "",
          "type": "string"
        }
      ],
      "stateMutability": "view",
      "type": "function"
    },
    {
      "inputs": [],
      "name": "nextTokenId",
      "outputs": [
        {
          "internalType": "uint256",
          "name": "",
          "type": "uint256"
        }
      ],
      "stateMutability": "view",
      "type": "function"
    },
    {
      "inputs": [],
      "name": "owner",
      "outputs": [
        {
          "internalType": "address",
          "name": "",
          "type": "address"
        }
      ],
      "stateMutability": "view",
      "type": "function"
    },
    {
      "inputs": [
        {
          "internalType": "uint256",
          "name": "tokenId",
          "type": "uint256"
        }
      ],
      "name": "ownerOf",
      "outputs": [
        {
          "internalType": "address",
          "name": "",
          "type": "address"
        }
      ],
      "stateMutability": "view",
      "type": "function"
    },
    {
      "inputs": [],
      "name": "renounceOwnership",
      "outputs": [],
      "stateMutability": "nonpayable",
      "type": "function"
    },
    {
      "inputs": [
        {
          "internalType": "address",
          "name": "from",
          "type": "address"
        },
        {
          "internalType": "address",
          "name": "to",
          "type": "address"
        },
        {
          "internalType": "uint256",
          "name": "tokenId",
          "type": "uint256"
        }
      ],
      "name": "safeTransferFrom",
      "outputs": [],
      "stateMutability": "nonpayable",
      "type": "function"
    },
    {
      "inputs": [
        {
          "internalType": "address",
          "name": "from",
          "type": "address"
        },
        {
          "internalType": "address",
          "name": "to",
          "type": "address"
        },
        {
          "internalType": "uint256",
          "name": "tokenId",
          "type": "uint256"
        },
        {
          "internalType": "bytes",
          "name": "data",
          "type": "bytes"
        }
      ],
      "name": "safeTransferFrom",
      "outputs": [],
      "stateMutability": "nonpayable",
      "type": "function"
    },
    {
      "inputs": [
        {
          "internalType": "address",
          "name": "operator",
          "type": "address"
        },
        {
          "internalType": "bool",
          "name": "approved",
          "type": "bool"
        }
      ],
      "name": "setApprovalForAll",
      "outputs": [],
      "stateMutability": "nonpayable",
      "type": "function"
    },
    {
      "inputs": [
        {
          "internalType": "bytes4",
          "name": "interfaceId",
          "type": "bytes4"
        }
      ],
      "name": "supportsInterface",
      "outputs": [
        {
          "internalType": "bool",
          "name": "",
          "type": "bool"
        }
      ],
      "stateMutability": "view",
      "type": "function"
    },
    {
      "inputs": [],
      "name": "symbol",
      "outputs": [
        {
          "internalType": "string",
          "name": "",
          "type": "string"
        }
      ],
      "stateMutability": "view",
      "type": "function"
    },
    {
      "inputs": [
        {
          "internalType": "uint256",
          "name": "index",
          "type": "uint256"
        }
      ],
      "name": "tokenByIndex",
      "outputs": [
        {
          "internalType": "uint256",
          "name": "",
          "type": "uint256"
        }
      ],
      "stateMutability": "view",
      "type": "function"
    },
    {
      "inputs": [
        {
          "internalType": "address",
          "name": "owner",
          "type": "address"
        },
        {
          "internalType": "uint256",
          "name": "index",
          "type": "uint256"
        }
      ],
      "name": "tokenOfOwnerByIndex",
      "outputs": [
        {
          "internalType": "uint256",
          "name": "",
          "type": "uint256"
        }
      ],
      "stateMutability": "view",
      "type": "function"
    },
    {
      "inputs": [
        {
          "internalType": "uint256",
          "name": "tokenId",
          "type": "uint256"
        }
      ],
      "name": "tokenURI",
      "outputs": [
        {
          "internalType": "string",
          "name": "",
          "type": "string"
        }
      ],
      "stateMutability": "view",
      "type": "function"
    },
    {
      "inputs": [],
      "name": "totalSupply",
      "outputs": [
        {
          "internalType": "uint256",
          "name": "",
          "type": "uint256"
        }
      ],
      "stateMutability": "view",
      "type": "function"
    },
    {
      "inputs": [
        {
          "internalType": "address",
          "name": "from",
          "type": "address"
        },
        {
          "internalType": "address",
          "name": "to",
          "type": "address"
        },
        {
          "internalType": "uint256",
          "name": "tokenId",
          "type": "uint256"
        }
      ],
      "name": "transferFrom",
      "outputs": [],
      "stateMutability": "nonpayable",
      "type": "function"
    },
    {
      "inputs": [
        {
          "internalType": "address",
          "name": "newOwner",
          "type": "address"
        }
      ],
      "name": "transferOwnership",
      "outputs": [],
      "stateMutability": "nonpayable",
      "type": "function"
    },
    {
      "inputs": [
        {
          "internalType": "address",
          "name": "to",
          "type": "address"
        },
        {
          "internalType": "string",
          "name": "certificateInfo",
          "type": "string"
        }
      ],
      "name": "mint",
      "outputs": [],
      "stateMutability": "nonpayable",
      "type": "function"
    },
    {
      "inputs": [
        {
          "internalType": "uint256",
          "name": "tokenId",
          "type": "uint256"
        }
      ],
      "name": "getCertificateDetails",
      "outputs": [
        {
          "internalType": "string",
          "name": "",
          "type": "string"
        }
      ],
      "stateMutability": "view",
      "type": "function"
    },
    {
      "inputs": [
        {
          "internalType": "uint256",
          "name": "tokenId",
          "type": "uint256"
        },
        {
          "internalType": "address",
          "name": "approvedAddress",
          "type": "address"
        }
      ],
      "name": "approveAccess",
      "outputs": [],
      "stateMutability": "nonpayable",
      "type": "function"
    },
    {
      "inputs": [],
      "name": "destroy",
      "outputs": [],
      "stateMutability": "nonpayable",
      "type": "function"
    }
  ],
  "bytecode": "0x608060405234801562000010575f80fd5b5060405162003d7438038062003d748339818101604052810190620000369190620002d4565b8181815f90816200004891906200058e565b5080600190816200005a91906200058e565b5050506200007d620000716200008560201b60201c565b6200008c60201b60201c565b505062000672565b5f33905090565b5f600a5f9054906101000a900473ffffffffffffffffffffffffffffffffffffffff16905081600a5f6101000a81548173ffffffffffffffffffffffffffffffffffffffff021916908373ffffffffffffffffffffffffffffffffffffffff1602179055508173ffffffffffffffffffffffffffffffffffffffff168173ffffffffffffffffffffffffffffffffffffffff167f8be0079c531659141344cd1fd0a4f28419497f9722a3daafe3b4186f6b6457e060405160405180910390a35050565b5f604051905090565b5f80fd5b5f80fd5b5f80fd5b5f80fd5b5f601f19601f8301169050919050565b7f4e487b71000000000000000000000000000000000000000000000000000000005f52604160045260245ffd5b620001b08262000168565b810181811067ffffffffffffffff82111715620001d257620001d162000178565b5b80604052505050565b5f620001e66200014f565b9050620001f48282620001a5565b919050565b5f67ffffffffffffffff82111562000216576200021562000178565b5b620002218262000168565b9050602081019050919050565b5f5b838110156200024d57808201518184015260208101905062000230565b5f8484015250505050565b5f6200026e6200026884620001f9565b620001db565b9050828152602081018484840111156200028d576200028c62000164565b5b6200029a8482856200022e565b509392505050565b5f82601f830112620002b957620002b862000160565b5b8151620002cb84826020860162000258565b91505092915050565b5f8060408385031215620002ed57620002ec62000158565b5b5f83015167ffffffffffffffff8111156200030d576200030c6200015c565b5b6200031b85828601620002a2565b925050602083015167ffffffffffffffff8111156200033f576200033e6200015c565b5b6200034d85828601620002a2565b9150509250929050565b5f81519050919050565b7f4e487b71000000000000000000000000000000000000000000000000000000005f52602260045260245ffd5b5f6002820490506001821680620003a657607f821691505b602082108103620003bc57620003bb62000361565b5b50919050565b5f819050815f5260205f209050919050565b5f6020601f8301049050919050565b5f82821b905092915050565b5f60088302620004207fffffffffffffffffffffffffffffffffffffffffffffffffffffffffffffffff82620003e3565b6200042c8683620003e3565b95508019841693508086168417925050509392505050565b5f819050919050565b5f819050919050565b5f62000476620004706200046a8462000444565b6200044d565b62000444565b9050919050565b5f819050919050565b620004918362000456565b620004a9620004a0826200047d565b848454620003ef565b825550505050565b5f90565b620004bf620004b1565b620004cc81848462000486565b505050565b5b81811015620004f357620004e75f82620004b5565b600181019050620004d2565b5050565b601f82111562000542576200050c81620003c2565b6200051784620003d4565b8101602085101562000527578190505b6200053f6200053685620003d4565b830182620004d1565b50505b505050565b5f82821c905092915050565b5f620005645f198460080262000547565b1980831691505092915050565b5f6200057e838362000553565b9150826002028217905092915050565b620005998262000357565b67ffffffffffffffff811115620005b557620005b462000178565b5b620005c182546200038e565b620005ce828285620004f7565b5f60209050601f83116001811462000604575f8415620005ef578287015190505b620005fb858262000571565b8655506200066a565b601f1984166200061486620003c2565b5f5b828110156200063d5784890151825560018201915060208501945060208101905062000616565b868310156200065d578489015162000659601f89168262000553565b8355505b6001600288020188555050505b505050505050565b6136f480620006805f395ff3fe608060405234801561000f575f80fd5b5060043610610156575f3560e01c8063715018a6116100c1578063a901fe5e1161007a578063a901fe5e146103b0578063b88d4fde146103e0578063c87b56dd146103fc578063d0def5211461042c578063e985e9c514610448578063f2fde38b1461047857610156565b8063715018a61461032657806375794a3c1461033057806383197ef01461034e5780638da5cb5b1461035857806395d89b4114610376578063a22cb4651461039457610156565b806323b872dd1161011357806323b872dd1461022e5780632f745c591461024a57806342842e0e1461027a5780634f6ccce7146102965780636352211e146102c657806370a08231146102f657610156565b806301ffc9a71461015a57806306fdde031461018a578063081812fc146101a8578063095ea7b3146101d857806318160ddd146101f45780631e4144ed14610212575b5f80fd5b610174600480360381019061016f919061228e565b610494565b60405161018191906122d3565b60405180910390f35b61019261050d565b60405161019f9190612376565b60405180910390f35b6101c260048036038101906101bd91906123c9565b61059c565b6040516101cf9190612433565b60405180910390f35b6101f260048036038101906101ed9190612476565b6105de565b005b6101fc6106f4565b60405161020991906124c3565b60405180910390f35b61022c600480360381019061022791906124dc565b610700565b005b6102486004803603810190610243919061251a565b610716565b005b610264600480360381019061025f9190612476565b610776565b60405161027191906124c3565b60405180910390f35b610294600480360381019061028f919061251a565b610816565b005b6102b060048036038101906102ab91906123c9565b610835565b6040516102bd91906124c3565b60405180910390f35b6102e060048036038101906102db91906123c9565b6108a3565b6040516102ed9190612433565b60405180910390f35b610310600480360381019061030b919061256a565b610927565b60405161031d91906124c3565b60405180910390f35b61032e6109db565b005b6103386109ee565b60405161034591906124c3565b60405180910390f35b6103566109f4565b005b610360610a20565b60405161036d9190612433565b60405180910390f35b61037e610a48565b60405161038b9190612376565b60405180910390f35b6103ae60048036038101906103a991906125bf565b610ad8565b005b6103ca60048036038101906103c591906123c9565b610aee565b6040516103d79190612376565b60405180910390f35b6103fa60048036038101906103f59190612729565b610c17565b005b610416600480360381019061041191906123c9565b610c79565b6040516104239190612376565b60405180910390f35b61044660048036038101906104419190612847565b610cde565b005b610462600480360381019061045d91906128a1565b610d31565b60405161046f91906122d3565b60405180910390f35b610492600480360381019061048d919061256a565b610dbf565b005b5f7f780e9d63000000000000000000000000000000000000000000000000000000007bffffffffffffffffffffffffffffffffffffffffffffffffffffffff1916827bffffffffffffffffffffffffffffffffffffffffffffffffffffffff19161480610506575061050582610e41565b5b9050919050565b60605f805461051b9061290c565b80601f01602080910402602001604051908101604052809291908181526020018280546105479061290c565b80156105925780601f1061056957610100808354040283529160200191610592565b820191905f5260205f20905b81548152906001019060200180831161057557829003601f168201915b5050505050905090565b5f6105a682610f22565b60045f8381526020019081526020015f205f9054906101000a900473ffffffffffffffffffffffffffffffffffffffff169050919050565b5f6105e8826108a3565b90508073ffffffffffffffffffffffffffffffffffffffff168373ffffffffffffffffffffffffffffffffffffffff1603610658576040517f08c379a000000000000000000000000000000000000000000000000000000000815260040161064f906129ac565b60405180910390fd5b8073ffffffffffffffffffffffffffffffffffffffff16610677610f6d565b73ffffffffffffffffffffffffffffffffffffffff1614806106a657506106a5816106a0610f6d565b610d31565b5b6106e5576040517f08c379a00000000000000000000000000000000000000000000000000000000081526004016106dc90612a3a565b60405180910390fd5b6106ef8383610f74565b505050565b5f600880549050905090565b61070861102a565b61071281836105de565b5050565b610727610721610f6d565b826110a8565b610766576040517f08c379a000000000000000000000000000000000000000000000000000000000815260040161075d90612ac8565b60405180910390fd5b61077183838361113c565b505050565b5f61078083610927565b82106107c1576040517f08c379a00000000000000000000000000000000000000000000000000000000081526004016107b890612b56565b60405180910390fd5b60065f8473ffffffffffffffffffffffffffffffffffffffff1673ffffffffffffffffffffffffffffffffffffffff1681526020019081526020015f205f8381526020019081526020015f2054905092915050565b61083083838360405180602001604052805f815250610c17565b505050565b5f61083e6106f4565b821061087f576040517f08c379a000000000000000000000000000000000000000000000000000000000815260040161087690612be4565b60405180910390fd5b6008828154811061089357610892612c02565b5b905f5260205f2001549050919050565b5f806108ae83611428565b90505f73ffffffffffffffffffffffffffffffffffffffff168173ffffffffffffffffffffffffffffffffffffffff160361091e576040517f08c379a000000000000000000000000000000000000000000000000000000000815260040161091590612c79565b60405180910390fd5b80915050919050565b5f8073ffffffffffffffffffffffffffffffffffffffff168273ffffffffffffffffffffffffffffffffffffffff1603610996576040517f08c379a000000000000000000000000000000000000000000000000000000000815260040161098d90612d07565b60405180910390fd5b60035f8373ffffffffffffffffffffffffffffffffffffffff1673ffffffffffffffffffffffffffffffffffffffff1681526020019081526020015f20549050919050565b6109e361102a565b6109ec5f611461565b565b600b5481565b6109fc61102a565b5f610a05610a20565b90508073ffffffffffffffffffffffffffffffffffffffff16ff5b5f600a5f9054906101000a900473ffffffffffffffffffffffffffffffffffffffff16905090565b606060018054610a579061290c565b80601f0160208091040260200160405190810160405280929190818152602001828054610a839061290c565b8015610ace5780601f10610aa557610100808354040283529160200191610ace565b820191905f5260205f20905b815481529060010190602001808311610ab157829003601f168201915b5050505050905090565b610aea610ae3610f6d565b8383611524565b5050565b606081610af9610a20565b73ffffffffffffffffffffffffffffffffffffffff163373ffffffffffffffffffffffffffffffffffffffff161480610b385750610b3733826110a8565b5b610b77576040517f08c379a0000000000000000000000000000000000000000000000000000000008152600401610b6e90612d95565b60405180910390fd5b600c5f8481526020019081526020015f208054610b939061290c565b80601f0160208091040260200160405190810160405280929190818152602001828054610bbf9061290c565b8015610c0a5780601f10610be157610100808354040283529160200191610c0a565b820191905f5260205f20905b815481529060010190602001808311610bed57829003601f168201915b5050505050915050919050565b610c28610c22610f6d565b836110a8565b610c67576040517f08c379a0000000000000000000000000000000000000000000000000000000008152600401610c5e90612ac8565b60405180910390fd5b610c738484848461168b565b50505050565b6060610c8482610f22565b5f610c8d6116e7565b90505f815111610cab5760405180602001604052805f815250610cd6565b80610cb5846116fd565b604051602001610cc6929190612ded565b6040516020818303038152906040525b915050919050565b610ce661102a565b5f600b549050600b5f815480929190610cfe90612e3d565b9190505550610d0d83826117c7565b81600c5f8381526020019081526020015f209081610d2b9190613021565b50505050565b5f60055f8473ffffffffffffffffffffffffffffffffffffffff1673ffffffffffffffffffffffffffffffffffffffff1681526020019081526020015f205f8373ffffffffffffffffffffffffffffffffffffffff1673ffffffffffffffffffffffffffffffffffffffff1681526020019081526020015f205f9054906101000a900460ff16905092915050565b610dc761102a565b5f73ffffffffffffffffffffffffffffffffffffffff168173ffffffffffffffffffffffffffffffffffffffff1603610e35576040517f08c379a0000000000000000000000000000000000000000000000000000000008152600401610e2c90613160565b60405180910390fd5b610e3e81611461565b50565b5f7f80ac58cd000000000000000000000000000000000000000000000000000000007bffffffffffffffffffffffffffffffffffffffffffffffffffffffff1916827bffffffffffffffffffffffffffffffffffffffffffffffffffffffff19161480610f0b57507f5b5e139f000000000000000000000000000000000000000000000000000000007bffffffffffffffffffffffffffffffffffffffffffffffffffffffff1916827bffffffffffffffffffffffffffffffffffffffffffffffffffffffff1916145b80610f1b5750610f1a826117e4565b5b9050919050565b610f2b8161184d565b610f6a576040517f08c379a0000000000000000000000000000000000000000000000000000000008152600401610f6190612c79565b60405180910390fd5b50565b5f33905090565b8160045f8381526020019081526020015f205f6101000a81548173ffffffffffffffffffffffffffffffffffffffff021916908373ffffffffffffffffffffffffffffffffffffffff160217905550808273ffffffffffffffffffffffffffffffffffffffff16610fe4836108a3565b73ffffffffffffffffffffffffffffffffffffffff167f8c5be1e5ebec7d5bd14f71427d1e84f3dd0314c0f7b2291e5b200ac8c7c3b92560405160405180910390a45050565b611032610f6d565b73ffffffffffffffffffffffffffffffffffffffff16611050610a20565b73ffffffffffffffffffffffffffffffffffffffff16146110a6576040517f08c379a000000000000000000000000000000000000000000000000000000000815260040161109d906131c8565b60405180910390fd5b565b5f806110b3836108a3565b90508073ffffffffffffffffffffffffffffffffffffffff168473ffffffffffffffffffffffffffffffffffffffff1614806110f557506110f48185610d31565b5b8061113357508373ffffffffffffffffffffffffffffffffffffffff1661111b8461059c565b73ffffffffffffffffffffffffffffffffffffffff16145b91505092915050565b8273ffffffffffffffffffffffffffffffffffffffff1661115c826108a3565b73ffffffffffffffffffffffffffffffffffffffff16146111b2576040517f08c379a00000000000000000000000000000000000000000000000000000000081526004016111a990613256565b60405180910390fd5b5f73ffffffffffffffffffffffffffffffffffffffff168273ffffffffffffffffffffffffffffffffffffffff1603611220576040517f08c379a0000000000000000000000000000000000000000000000000000000008152600401611217906132e4565b60405180910390fd5b61122d838383600161188d565b8273ffffffffffffffffffffffffffffffffffffffff1661124d826108a3565b73ffffffffffffffffffffffffffffffffffffffff16146112a3576040517f08c379a000000000000000000000000000000000000000000000000000000000815260040161129a90613256565b60405180910390fd5b60045f8281526020019081526020015f205f6101000a81549073ffffffffffffffffffffffffffffffffffffffff0219169055600160035f8573ffffffffffffffffffffffffffffffffffffffff1673ffffffffffffffffffffffffffffffffffffffff1681526020019081526020015f205f8282540392505081905550600160035f8473ffffffffffffffffffffffffffffffffffffffff1673ffffffffffffffffffffffffffffffffffffffff1681526020019081526020015f205f82825401925050819055508160025f8381526020019081526020015f205f6101000a81548173ffffffffffffffffffffffffffffffffffffffff021916908373ffffffffffffffffffffffffffffffffffffffff160217905550808273ffffffffffffffffffffffffffffffffffffffff168473ffffffffffffffffffffffffffffffffffffffff167fddf252ad1be2c89b69c2b068fc378daa952ba7f163c4a11628f55a4df523b3ef60405160405180910390a461142383838360016119e8565b505050565b5f60025f8381526020019081526020015f205f9054906101000a900473ffffffffffffffffffffffffffffffffffffffff169050919050565b5f600a5f9054906101000a900473ffffffffffffffffffffffffffffffffffffffff16905081600a5f6101000a81548173ffffffffffffffffffffffffffffffffffffffff021916908373ffffffffffffffffffffffffffffffffffffffff1602179055508173ffffffffffffffffffffffffffffffffffffffff168173ffffffffffffffffffffffffffffffffffffffff167f8be0079c531659141344cd1fd0a4f28419497f9722a3daafe3b4186f6b6457e060405160405180910390a35050565b8173ffffffffffffffffffffffffffffffffffffffff168373ffffffffffffffffffffffffffffffffffffffff1603611592576040517f08c379a00000000000000000000000000000000000000000000000000000000081526004016115899061334c565b60405180910390fd5b8060055f8573ffffffffffffffffffffffffffffffffffffffff1673ffffffffffffffffffffffffffffffffffffffff1681526020019081526020015f205f8473ffffffffffffffffffffffffffffffffffffffff1673ffffffffffffffffffffffffffffffffffffffff1681526020019081526020015f205f6101000a81548160ff0219169083151502179055508173ffffffffffffffffffffffffffffffffffffffff168373ffffffffffffffffffffffffffffffffffffffff167f17307eab39ab6107e8899845ad3d59bd9653f200f220920489ca2b5937696c318360405161167e91906122d3565b60405180910390a3505050565b61169684848461113c565b6116a2848484846119ee565b6116e1576040517f08c379a00000000000000000000000000000000000000000000000000000000081526004016116d8906133da565b60405180910390fd5b50505050565b606060405180602001604052805f815250905090565b60605f600161170b84611b70565b0190505f8167ffffffffffffffff81111561172957611728612605565b5b6040519080825280601f01601f19166020018201604052801561175b5781602001600182028036833780820191505090505b5090505f82602001820190505b6001156117bc578080600190039150507f3031323334353637383961626364656600000000000000000000000000000000600a86061a8153600a85816117b1576117b06133f8565b5b0494505f8503611768575b819350505050919050565b6117e0828260405180602001604052805f815250611cc1565b5050565b5f7f01ffc9a7000000000000000000000000000000000000000000000000000000007bffffffffffffffffffffffffffffffffffffffffffffffffffffffff1916827bffffffffffffffffffffffffffffffffffffffffffffffffffffffff1916149050919050565b5f8073ffffffffffffffffffffffffffffffffffffffff1661186e83611428565b73ffffffffffffffffffffffffffffffffffffffff1614159050919050565b61189984848484611d1b565b60018111156118dd576040517f08c379a00000000000000000000000000000000000000000000000000000000081526004016118d490613495565b60405180910390fd5b5f8290505f73ffffffffffffffffffffffffffffffffffffffff168573ffffffffffffffffffffffffffffffffffffffff16036119225761191d81611d21565b611961565b8373ffffffffffffffffffffffffffffffffffffffff168573ffffffffffffffffffffffffffffffffffffffff16146119605761195f8582611d65565b5b5b5f73ffffffffffffffffffffffffffffffffffffffff168473ffffffffffffffffffffffffffffffffffffffff16036119a25761199d81611ebb565b6119e1565b8473ffffffffffffffffffffffffffffffffffffffff168473ffffffffffffffffffffffffffffffffffffffff16146119e0576119df8482611f7b565b5b5b5050505050565b50505050565b5f611a0e8473ffffffffffffffffffffffffffffffffffffffff16611ff3565b15611b63578373ffffffffffffffffffffffffffffffffffffffff1663150b7a02611a37610f6d565b8786866040518563ffffffff1660e01b8152600401611a599493929190613505565b6020604051808303815f875af1925050508015611a9457506040513d601f19601f82011682018060405250810190611a919190613563565b60015b611b13573d805f8114611ac2576040519150601f19603f3d011682016040523d82523d5f602084013e611ac7565b606091505b505f815103611b0b576040517f08c379a0000000000000000000000000000000000000000000000000000000008152600401611b02906133da565b60405180910390fd5b805181602001fd5b63150b7a0260e01b7bffffffffffffffffffffffffffffffffffffffffffffffffffffffff1916817bffffffffffffffffffffffffffffffffffffffffffffffffffffffff191614915050611b68565b600190505b949350505050565b5f805f90507a184f03e93ff9f4daa797ed6e38ed64bf6a1f0100000000000000008310611bcc577a184f03e93ff9f4daa797ed6e38ed64bf6a1f0100000000000000008381611bc257611bc16133f8565b5b0492506040810190505b6d04ee2d6d415b85acef81000000008310611c09576d04ee2d6d415b85acef81000000008381611bff57611bfe6133f8565b5b0492506020810190505b662386f26fc100008310611c3857662386f26fc100008381611c2e57611c2d6133f8565b5b0492506010810190505b6305f5e1008310611c61576305f5e1008381611c5757611c566133f8565b5b0492506008810190505b6127108310611c86576127108381611c7c57611c7b6133f8565b5b0492506004810190505b60648310611ca95760648381611c9f57611c9e6133f8565b5b0492506002810190505b600a8310611cb8576001810190505b80915050919050565b611ccb8383612015565b611cd75f8484846119ee565b611d16576040517f08c379a0000000000000000000000000000000000000000000000000000000008152600401611d0d906133da565b60405180910390fd5b505050565b50505050565b60088054905060095f8381526020019081526020015f2081905550600881908060018154018082558091505060019003905f5260205f20015f909190919091505550565b5f6001611d7184610927565b611d7b919061358e565b90505f60075f8481526020019081526020015f20549050818114611e52575f60065f8673ffffffffffffffffffffffffffffffffffffffff1673ffffffffffffffffffffffffffffffffffffffff1681526020019081526020015f205f8481526020019081526020015f205490508060065f8773ffffffffffffffffffffffffffffffffffffffff1673ffffffffffffffffffffffffffffffffffffffff1681526020019081526020015f205f8481526020019081526020015f20819055508160075f8381526020019081526020015f2081905550505b60075f8481526020019081526020015f205f905560065f8573ffffffffffffffffffffffffffffffffffffffff1673ffffffffffffffffffffffffffffffffffffffff1681526020019081526020015f205f8381526020019081526020015f205f905550505050565b5f6001600880549050611ece919061358e565b90505f60095f8481526020019081526020015f205490505f60088381548110611efa57611ef9612c02565b5b905f5260205f20015490508060088381548110611f1a57611f19612c02565b5b905f5260205f2001819055508160095f8381526020019081526020015f208190555060095f8581526020019081526020015f205f90556008805480611f6257611f616135c1565b5b600190038181905f5260205f20015f9055905550505050565b5f611f8583610927565b90508160065f8573ffffffffffffffffffffffffffffffffffffffff1673ffffffffffffffffffffffffffffffffffffffff1681526020019081526020015f205f8381526020019081526020015f20819055508060075f8481526020019081526020015f2081905550505050565b5f808273ffffffffffffffffffffffffffffffffffffffff163b119050919050565b5f73ffffffffffffffffffffffffffffffffffffffff168273ffffffffffffffffffffffffffffffffffffffff1603612083576040517f08c379a000000000000000000000000000000000000000000000000000000000815260040161207a90613638565b60405180910390fd5b61208c8161184d565b156120cc576040517f08c379a00000000000000000000000000000000000000000000000000000000081526004016120c3906136a0565b60405180910390fd5b6120d95f8383600161188d565b6120e28161184d565b15612122576040517f08c379a0000000000000000000000000000000000000000000000000000000008152600401612119906136a0565b60405180910390fd5b600160035f8473ffffffffffffffffffffffffffffffffffffffff1673ffffffffffffffffffffffffffffffffffffffff1681526020019081526020015f205f82825401925050819055508160025f8381526020019081526020015f205f6101000a81548173ffffffffffffffffffffffffffffffffffffffff021916908373ffffffffffffffffffffffffffffffffffffffff160217905550808273ffffffffffffffffffffffffffffffffffffffff165f73ffffffffffffffffffffffffffffffffffffffff167fddf252ad1be2c89b69c2b068fc378daa952ba7f163c4a11628f55a4df523b3ef60405160405180910390a46122245f838360016119e8565b5050565b5f604051905090565b5f80fd5b5f80fd5b5f7fffffffff0000000000000000000000000000000000000000000000000000000082169050919050565b61226d81612239565b8114612277575f80fd5b50565b5f8135905061228881612264565b92915050565b5f602082840312156122a3576122a2612231565b5b5f6122b08482850161227a565b91505092915050565b5f8115159050919050565b6122cd816122b9565b82525050565b5f6020820190506122e65f8301846122c4565b92915050565b5f81519050919050565b5f82825260208201905092915050565b5f5b83811015612323578082015181840152602081019050612308565b5f8484015250505050565b5f601f19601f8301169050919050565b5f612348826122ec565b61235281856122f6565b9350612362818560208601612306565b61236b8161232e565b840191505092915050565b5f6020820190508181035f83015261238e818461233e565b905092915050565b5f819050919050565b6123a881612396565b81146123b2575f80fd5b50565b5f813590506123c38161239f565b92915050565b5f602082840312156123de576123dd612231565b5b5f6123eb848285016123b5565b91505092915050565b5f73ffffffffffffffffffffffffffffffffffffffff82169050919050565b5f61241d826123f4565b9050919050565b61242d81612413565b82525050565b5f6020820190506124465f830184612424565b92915050565b61245581612413565b811461245f575f80fd5b50565b5f813590506124708161244c565b92915050565b5f806040838503121561248c5761248b612231565b5b5f61249985828601612462565b92505060206124aa858286016123b5565b9150509250929050565b6124bd81612396565b82525050565b5f6020820190506124d65f8301846124b4565b92915050565b5f80604083850312156124f2576124f1612231565b5b5f6124ff858286016123b5565b925050602061251085828601612462565b9150509250929050565b5f805f6060848603121561253157612530612231565b5b5f61253e86828701612462565b935050602061254f86828701612462565b9250506040612560868287016123b5565b9150509250925092565b5f6020828403121561257f5761257e612231565b5b5f61258c84828501612462565b91505092915050565b61259e816122b9565b81146125a8575f80fd5b50565b5f813590506125b981612595565b92915050565b5f80604083850312156125d5576125d4612231565b5b5f6125e285828601612462565b92505060206125f3858286016125ab565b9150509250929050565b5f80fd5b5f80fd5b7f4e487b71000000000000000000000000000000000000000000000000000000005f52604160045260245ffd5b61263b8261232e565b810181811067ffffffffffffffff8211171561265a57612659612605565b5b80604052505050565b5f61266c612228565b90506126788282612632565b919050565b5f67ffffffffffffffff82111561269757612696612605565b5b6126a08261232e565b9050602081019050919050565b828183375f83830152505050565b5f6126cd6126c88461267d565b612663565b9050828152602081018484840111156126e9576126e8612601565b5b6126f48482856126ad565b509392505050565b5f82601f8301126127105761270f6125fd565b5b81356127208482602086016126bb565b91505092915050565b5f805f806080858703121561274157612740612231565b5b5f61274e87828801612462565b945050602061275f87828801612462565b9350506040612770878288016123b5565b925050606085013567ffffffffffffffff81111561279157612790612235565b5b61279d878288016126fc565b91505092959194509250565b5f67ffffffffffffffff8211156127c3576127c2612605565b5b6127cc8261232e565b9050602081019050919050565b5f6127eb6127e6846127a9565b612663565b90508281526020810184848401111561280757612806612601565b5b6128128482856126ad565b509392505050565b5f82601f83011261282e5761282d6125fd565b5b813561283e8482602086016127d9565b91505092915050565b5f806040838503121561285d5761285c612231565b5b5f61286a85828601612462565b925050602083013567ffffffffffffffff81111561288b5761288a612235565b5b6128978582860161281a565b9150509250929050565b5f80604083850312156128b7576128b6612231565b5b5f6128c485828601612462565b92505060206128d585828601612462565b9150509250929050565b7f4e487b71000000000000000000000000000000000000000000000000000000005f52602260045260245ffd5b5f600282049050600182168061292357607f821691505b602082108103612936576129356128df565b5b50919050565b7f4552433732313a20617070726f76616c20746f2063757272656e74206f776e655f8201527f7200000000000000000000000000000000000000000000000000000000000000602082015250565b5f6129966021836122f6565b91506129a18261293c565b604082019050919050565b5f6020820190508181035f8301526129c38161298a565b9050919050565b7f4552433732313a20617070726f76652063616c6c6572206973206e6f7420746f5f8201527f6b656e206f776e6572206f7220617070726f76656420666f7220616c6c000000602082015250565b5f612a24603d836122f6565b9150612a2f826129ca565b604082019050919050565b5f6020820190508181035f830152612a5181612a18565b9050919050565b7f4552433732313a2063616c6c6572206973206e6f7420746f6b656e206f776e655f8201527f72206f7220617070726f76656400000000000000000000000000000000000000602082015250565b5f612ab2602d836122f6565b9150612abd82612a58565b604082019050919050565b5f6020820190508181035f830152612adf81612aa6565b9050919050565b7f455243373231456e756d657261626c653a206f776e657220696e646578206f755f8201527f74206f6620626f756e6473000000000000000000000000000000000000000000602082015250565b5f612b40602b836122f6565b9150612b4b82612ae6565b604082019050919050565b5f6020820190508181035f830152612b6d81612b34565b9050919050565b7f455243373231456e756d657261626c653a20676c6f62616c20696e646578206f5f8201527f7574206f6620626f756e64730000000000000000000000000000000000000000602082015250565b5f612bce602c836122f6565b9150612bd982612b74565b604082019050919050565b5f6020820190508181035f830152612bfb81612bc2565b9050919050565b7f4e487b71000000000000000000000000000000000000000000000000000000005f52603260045260245ffd5b7f4552433732313a20696e76616c696420746f6b656e20494400000000000000005f82015250565b5f612c636018836122f6565b9150612c6e82612c2f565b602082019050919050565b5f6020820190508181035f830152612c9081612c57565b9050919050565b7f4552433732313a2061646472657373207a65726f206973206e6f7420612076615f8201527f6c6964206f776e65720000000000000000000000000000000000000000000000602082015250565b5f612cf16029836122f6565b9150612cfc82612c97565b604082019050919050565b5f6020820190508181035f830152612d1e81612ce5565b9050919050565b7f43616c6c6572206973206e6f7420746865206f776e6572206f7220617070726f5f8201527f7665640000000000000000000000000000000000000000000000000000000000602082015250565b5f612d7f6023836122f6565b9150612d8a82612d25565b604082019050919050565b5f6020820190508181035f830152612dac81612d73565b9050919050565b5f81905092915050565b5f612dc7826122ec565b612dd18185612db3565b9350612de1818560208601612306565b80840191505092915050565b5f612df88285612dbd565b9150612e048284612dbd565b91508190509392505050565b7f4e487b71000000000000000000000000000000000000000000000000000000005f52601160045260245ffd5b5f612e4782612396565b91507fffffffffffffffffffffffffffffffffffffffffffffffffffffffffffffffff8203612e7957612e78612e10565b5b600182019050919050565b5f819050815f5260205f209050919050565b5f6020601f8301049050919050565b5f82821b905092915050565b5f60088302612ee07fffffffffffffffffffffffffffffffffffffffffffffffffffffffffffffffff82612ea5565b612eea8683612ea5565b95508019841693508086168417925050509392505050565b5f819050919050565b5f612f25612f20612f1b84612396565b612f02565b612396565b9050919050565b5f819050919050565b612f3e83612f0b565b612f52612f4a82612f2c565b848454612eb1565b825550505050565b5f90565b612f66612f5a565b612f71818484612f35565b505050565b5b81811015612f9457612f895f82612f5e565b600181019050612f77565b5050565b601f821115612fd957612faa81612e84565b612fb384612e96565b81016020851015612fc2578190505b612fd6612fce85612e96565b830182612f76565b50505b505050565b5f82821c905092915050565b5f612ff95f1984600802612fde565b1980831691505092915050565b5f6130118383612fea565b9150826002028217905092915050565b61302a826122ec565b67ffffffffffffffff81111561304357613042612605565b5b61304d825461290c565b613058828285612f98565b5f60209050601f831160018114613089575f8415613077578287015190505b6130818582613006565b8655506130e8565b601f19841661309786612e84565b5f5b828110156130be57848901518255600182019150602085019450602081019050613099565b868310156130db57848901516130d7601f891682612fea565b8355505b6001600288020188555050505b505050505050565b7f4f776e61626c653a206e6577206f776e657220697320746865207a65726f20615f8201527f6464726573730000000000000000000000000000000000000000000000000000602082015250565b5f61314a6026836122f6565b9150613155826130f0565b604082019050919050565b5f6020820190508181035f8301526131778161313e565b9050919050565b7f4f776e61626c653a2063616c6c6572206973206e6f7420746865206f776e65725f82015250565b5f6131b26020836122f6565b91506131bd8261317e565b602082019050919050565b5f6020820190508181035f8301526131df816131a6565b9050919050565b7f4552433732313a207472616e736665722066726f6d20696e636f7272656374205f8201527f6f776e6572000000000000000000000000000000000000000000000000000000602082015250565b5f6132406025836122f6565b915061324b826131e6565b604082019050919050565b5f6020820190508181035f83015261326d81613234565b9050919050565b7f4552433732313a207472616e7366657220746f20746865207a65726f206164645f8201527f7265737300000000000000000000000000000000000000000000000000000000602082015250565b5f6132ce6024836122f6565b91506132d982613274565b604082019050919050565b5f6020820190508181035f8301526132fb816132c2565b9050919050565b7f4552433732313a20617070726f766520746f2063616c6c6572000000000000005f82015250565b5f6133366019836122f6565b915061334182613302565b602082019050919050565b5f6020820190508181035f8301526133638161332a565b9050919050565b7f4552433732313a207472616e7366657220746f206e6f6e2045524337323152655f8201527f63656976657220696d706c656d656e7465720000000000000000000000000000602082015250565b5f6133c46032836122f6565b91506133cf8261336a565b604082019050919050565b5f6020820190508181035f8301526133f1816133b8565b9050919050565b7f4e487b71000000000000000000000000000000000000000000000000000000005f52601260045260245ffd5b7f455243373231456e756d657261626c653a20636f6e73656375746976652074725f8201527f616e7366657273206e6f7420737570706f727465640000000000000000000000602082015250565b5f61347f6035836122f6565b915061348a82613425565b604082019050919050565b5f6020820190508181035f8301526134ac81613473565b9050919050565b5f81519050919050565b5f82825260208201905092915050565b5f6134d7826134b3565b6134e181856134bd565b93506134f1818560208601612306565b6134fa8161232e565b840191505092915050565b5f6080820190506135185f830187612424565b6135256020830186612424565b61353260408301856124b4565b818103606083015261354481846134cd565b905095945050505050565b5f8151905061355d81612264565b92915050565b5f6020828403121561357857613577612231565b5b5f6135858482850161354f565b91505092915050565b5f61359882612396565b91506135a383612396565b92508282039050818111156135bb576135ba612e10565b5b92915050565b7f4e487b71000000000000000000000000000000000000000000000000000000005f52603160045260245ffd5b7f4552433732313a206d696e7420746f20746865207a65726f20616464726573735f82015250565b5f6136226020836122f6565b915061362d826135ee565b602082019050919050565b5f6020820190508181035f83015261364f81613616565b9050919050565b7f4552433732313a20746f6b656e20616c7265616479206d696e746564000000005f82015250565b5f61368a601c836122f6565b915061369582613656565b602082019050919050565b5f6020820190508181035f8301526136b78161367e565b905091905056fea26469706673582212203d836d18d44335d847f34965a31cdb34744f22f56239fc5091d740b99613990a64736f6c63430008150033",
  "immutableReferences": {},
  "source": "// SPDX-License-Identifier: MIT\npragma solidity ^0.8.0;\n\nimport \"@openzeppelin/contracts/token/ERC721/extensions/ERC721Enumerable.sol\";\nimport \"@openzeppelin/contracts/access/Ownable.sol\";\n\ncontract ECertificateContract is ERC721Enumerable, Ownable {\n    uint256 public nextTokenId;\n    mapping(uint256 => string) private certificateDetails;\n\n    constructor(string memory name, string memory symbol) ERC721(name, symbol) {}\n\n    modifier onlyOwnerOrTokenOwner(uint256 tokenId) {\n        require(\n            msg.sender == owner() || _isApprovedOrOwner(msg.sender, tokenId),\n            \"Caller is not the owner or approved\"\n        );\n        _;\n    }\n\n    function mint(address to, string memory certificateInfo) external onlyOwner {\n        uint256 tokenId = nextTokenId;\n        nextTokenId++;\n        _safeMint(to, tokenId);\n        certificateDetails[tokenId] = certificateInfo;\n    }\n\n    function getCertificateDetails(uint256 tokenId) external view onlyOwnerOrTokenOwner(tokenId) returns (string memory) {\n        return certificateDetails[tokenId];\n    }\n\n    function approveAccess(uint256 tokenId, address approvedAddress) external onlyOwner {\n        approve(approvedAddress, tokenId);\n    }\n\n    function destroy() external onlyOwner {\n        address ownerAddress = owner();\n        selfdestruct(payable(ownerAddress));\n    }\n}\n",
  "sourcePath": "/home/pridroger/ecertificate/ethereum/contracts/ECertificateContract.sol",
  "compiler": {
    "name": "solc",
    "version": "0.8.21+commit.d9974bed.Emscripten.clang"
  },
  "schemaVersion": "3.4.15",
  "updatedAt": "2023-09-17T08:04:40.189Z",
  "devdoc": {
    "events": {
      "Approval(address,address,uint256)": {
        "details": "Emitted when `owner` enables `approved` to manage the `tokenId` token."
      },
      "ApprovalForAll(address,address,bool)": {
        "details": "Emitted when `owner` enables or disables (`approved`) `operator` to manage all of its assets."
      },
      "Transfer(address,address,uint256)": {
        "details": "Emitted when `tokenId` token is transferred from `from` to `to`."
      }
    },
    "kind": "dev",
    "methods": {
      "approve(address,uint256)": {
        "details": "See {IERC721-approve}."
      },
      "balanceOf(address)": {
        "details": "See {IERC721-balanceOf}."
      },
      "getApproved(uint256)": {
        "details": "See {IERC721-getApproved}."
      },
      "isApprovedForAll(address,address)": {
        "details": "See {IERC721-isApprovedForAll}."
      },
      "name()": {
        "details": "See {IERC721Metadata-name}."
      },
      "owner()": {
        "details": "Returns the address of the current owner."
      },
      "ownerOf(uint256)": {
        "details": "See {IERC721-ownerOf}."
      },
      "renounceOwnership()": {
        "details": "Leaves the contract without owner. It will not be possible to call `onlyOwner` functions. Can only be called by the current owner. NOTE: Renouncing ownership will leave the contract without an owner, thereby disabling any functionality that is only available to the owner."
      },
      "safeTransferFrom(address,address,uint256)": {
        "details": "See {IERC721-safeTransferFrom}."
      },
      "safeTransferFrom(address,address,uint256,bytes)": {
        "details": "See {IERC721-safeTransferFrom}."
      },
      "setApprovalForAll(address,bool)": {
        "details": "See {IERC721-setApprovalForAll}."
      },
      "supportsInterface(bytes4)": {
        "details": "See {IERC165-supportsInterface}."
      },
      "symbol()": {
        "details": "See {IERC721Metadata-symbol}."
      },
      "tokenByIndex(uint256)": {
        "details": "See {IERC721Enumerable-tokenByIndex}."
      },
      "tokenOfOwnerByIndex(address,uint256)": {
        "details": "See {IERC721Enumerable-tokenOfOwnerByIndex}."
      },
      "tokenURI(uint256)": {
        "details": "See {IERC721Metadata-tokenURI}."
      },
      "totalSupply()": {
        "details": "See {IERC721Enumerable-totalSupply}."
      },
      "transferFrom(address,address,uint256)": {
        "details": "See {IERC721-transferFrom}."
      },
      "transferOwnership(address)": {
        "details": "Transfers ownership of the contract to a new account (`newOwner`). Can only be called by the current owner."
      }
    },
    "version": 1
  },
  "userdoc": {
    "kind": "user",
    "methods": {},
    "version": 1
  }
}