{
  "contractName": "ServiceAccessControl",
  "abi": [
    {
      "inputs": [
        {
          "internalType": "address",
          "name": "certificateContractAddress",
          "type": "address"
        }
      ],
      "stateMutability": "nonpayable",
      "type": "constructor"
    },
    {
      "inputs": [
        {
          "internalType": "uint256",
          "name": "tokenId",
          "type": "uint256"
        }
      ],
      "name": "grantServiceAccess",
      "outputs": [
        {
          "internalType": "bool",
          "name": "",
          "type": "bool"
        }
      ],
      "stateMutability": "view",
      "type": "function"
    }
  ],
  "bytecode": "0x608060405234801561000f575f80fd5b506040516104c13803806104c1833981810160405281019061003191906100d4565b805f806101000a81548173ffffffffffffffffffffffffffffffffffffffff021916908373ffffffffffffffffffffffffffffffffffffffff160217905550506100ff565b5f80fd5b5f73ffffffffffffffffffffffffffffffffffffffff82169050919050565b5f6100a38261007a565b9050919050565b6100b381610099565b81146100bd575f80fd5b50565b5f815190506100ce816100aa565b92915050565b5f602082840312156100e9576100e8610076565b5b5f6100f6848285016100c0565b91505092915050565b6103b58061010c5f395ff3fe608060405234801561000f575f80fd5b5060043610610029575f3560e01c80632efd13111461002d575b5f80fd5b6100476004803603810190610042919061015c565b61005d565b60405161005491906101a1565b60405180910390f35b5f6100678261006e565b9050919050565b5f805f8054906101000a900473ffffffffffffffffffffffffffffffffffffffff1673ffffffffffffffffffffffffffffffffffffffff1663a901fe5e846040518263ffffffff1660e01b81526004016100c891906101c9565b5f60405180830381865afa1580156100e2573d5f803e3d5ffd5b505050506040513d5f823e3d601f19601f8201168201806040525081019061010a9190610338565b90505f815111915050919050565b5f604051905090565b5f80fd5b5f80fd5b5f819050919050565b61013b81610129565b8114610145575f80fd5b50565b5f8135905061015681610132565b92915050565b5f6020828403121561017157610170610121565b5b5f61017e84828501610148565b91505092915050565b5f8115159050919050565b61019b81610187565b82525050565b5f6020820190506101b45f830184610192565b92915050565b6101c381610129565b82525050565b5f6020820190506101dc5f8301846101ba565b92915050565b5f80fd5b5f80fd5b5f601f19601f8301169050919050565b7f4e487b71000000000000000000000000000000000000000000000000000000005f52604160045260245ffd5b610230826101ea565b810181811067ffffffffffffffff8211171561024f5761024e6101fa565b5b80604052505050565b5f610261610118565b905061026d8282610227565b919050565b5f67ffffffffffffffff82111561028c5761028b6101fa565b5b610295826101ea565b9050602081019050919050565b5f5b838110156102bf5780820151818401526020810190506102a4565b5f8484015250505050565b5f6102dc6102d784610272565b610258565b9050828152602081018484840111156102f8576102f76101e6565b5b6103038482856102a2565b509392505050565b5f82601f83011261031f5761031e6101e2565b5b815161032f8482602086016102ca565b91505092915050565b5f6020828403121561034d5761034c610121565b5b5f82015167ffffffffffffffff81111561036a57610369610125565b5b6103768482850161030b565b9150509291505056fea2646970667358221220f18f56cb696438a114add4492c040bae3850077343ae82903d5f01e4ea577c5c64736f6c63430008150033",
  "immutableReferences": {},
  "source": "// SPDX-License-Identifier: MIT\n\npragma solidity ^0.8.0;\n\nimport \"./ECertificateContract.sol\";\n\n\ncontract ServiceAccessControl {\n    ECertificateContract private certificateContract;\n\n    constructor(address certificateContractAddress) {\n        certificateContract = ECertificateContract(certificateContractAddress);\n    }\n\n    function validateCertificate(uint256 tokenId) internal view returns (bool) {\n        // Perform certificate validation logic here.\n        string memory certificateDetails = certificateContract.getCertificateDetails(tokenId);\n        return bytes(certificateDetails).length > 0;\n    }\n\n    function grantServiceAccess(uint256 tokenId) external view returns (bool) {\n        // Assume validation must be successful before granting access.\n        return validateCertificate(tokenId);\n    }\n}\n",
  "sourcePath": "/home/pridroger/ecertificate/ethereum/contracts/ServiceAccessControl.sol",
  "compiler": {
    "name": "solc",
    "version": "0.8.21+commit.d9974bed.Emscripten.clang"
  },
  "schemaVersion": "3.4.15",
  "updatedAt": "2023-09-17T08:04:40.198Z",
  "devdoc": {
    "kind": "dev",
    "methods": {},
    "version": 1
  },
  "userdoc": {
    "kind": "user",
    "methods": {},
    "version": 1
  }
}